{
  "_format": "hh3-artifact-1",
  "contractName": "SecureVotingContract",
  "sourceName": "contracts/VotingContract.sol",
  "abi": [
    {
      "inputs": [],
      "stateMutability": "nonpayable",
      "type": "constructor"
    },
    {
      "anonymous": false,
      "inputs": [
        {
          "indexed": false,
          "internalType": "string",
          "name": "id",
          "type": "string"
        },
        {
          "indexed": false,
          "internalType": "string",
          "name": "name",
          "type": "string"
        }
      ],
      "name": "PartyAdded",
      "type": "event"
    },
    {
      "anonymous": false,
      "inputs": [
        {
          "indexed": true,
          "internalType": "address",
          "name": "voter",
          "type": "address"
        },
        {
          "indexed": false,
          "internalType": "string",
          "name": "partyId",
          "type": "string"
        },
        {
          "indexed": false,
          "internalType": "bytes32",
          "name": "voteHash",
          "type": "bytes32"
        },
        {
          "indexed": false,
          "internalType": "uint256",
          "name": "timestamp",
          "type": "uint256"
        }
      ],
      "name": "VoteCast",
      "type": "event"
    },
    {
      "anonymous": false,
      "inputs": [
        {
          "indexed": false,
          "internalType": "uint256",
          "name": "timestamp",
          "type": "uint256"
        }
      ],
      "name": "VotingReset",
      "type": "event"
    },
    {
      "anonymous": false,
      "inputs": [
        {
          "indexed": false,
          "internalType": "uint256",
          "name": "timestamp",
          "type": "uint256"
        }
      ],
      "name": "VotingStarted",
      "type": "event"
    },
    {
      "anonymous": false,
      "inputs": [
        {
          "indexed": false,
          "internalType": "uint256",
          "name": "timestamp",
          "type": "uint256"
        }
      ],
      "name": "VotingStopped",
      "type": "event"
    },
    {
      "inputs": [
        {
          "internalType": "string",
          "name": "_id",
          "type": "string"
        },
        {
          "internalType": "string",
          "name": "_name",
          "type": "string"
        },
        {
          "internalType": "string",
          "name": "_logo",
          "type": "string"
        },
        {
          "internalType": "string",
          "name": "_color",
          "type": "string"
        }
      ],
      "name": "addParty",
      "outputs": [],
      "stateMutability": "nonpayable",
      "type": "function"
    },
    {
      "inputs": [],
      "name": "admin",
      "outputs": [
        {
          "internalType": "address",
          "name": "",
          "type": "address"
        }
      ],
      "stateMutability": "view",
      "type": "function"
    },
    {
      "inputs": [
        {
          "internalType": "string",
          "name": "_partyId",
          "type": "string"
        },
        {
          "internalType": "bool",
          "name": "_faceVerified",
          "type": "bool"
        },
        {
          "internalType": "bytes32",
          "name": "_userHash",
          "type": "bytes32"
        }
      ],
      "name": "castVote",
      "outputs": [],
      "stateMutability": "nonpayable",
      "type": "function"
    },
    {
      "inputs": [
        {
          "internalType": "address",
          "name": "_voter",
          "type": "address"
        },
        {
          "internalType": "string",
          "name": "_partyId",
          "type": "string"
        },
        {
          "internalType": "bool",
          "name": "_faceVerified",
          "type": "bool"
        },
        {
          "internalType": "bytes32",
          "name": "_userHash",
          "type": "bytes32"
        }
      ],
      "name": "castVoteFor",
      "outputs": [],
      "stateMutability": "nonpayable",
      "type": "function"
    },
    {
      "inputs": [],
      "name": "getAllPartyIds",
      "outputs": [
        {
          "internalType": "string[]",
          "name": "",
          "type": "string[]"
        }
      ],
      "stateMutability": "view",
      "type": "function"
    },
    {
      "inputs": [],
      "name": "getAllResults",
      "outputs": [
        {
          "internalType": "string[]",
          "name": "ids",
          "type": "string[]"
        },
        {
          "internalType": "string[]",
          "name": "names",
          "type": "string[]"
        },
        {
          "internalType": "string[]",
          "name": "logos",
          "type": "string[]"
        },
        {
          "internalType": "uint256[]",
          "name": "voteCounts",
          "type": "uint256[]"
        }
      ],
      "stateMutability": "view",
      "type": "function"
    },
    {
      "inputs": [
        {
          "internalType": "string",
          "name": "_partyId",
          "type": "string"
        }
      ],
      "name": "getParty",
      "outputs": [
        {
          "internalType": "string",
          "name": "name",
          "type": "string"
        },
        {
          "internalType": "string",
          "name": "logo",
          "type": "string"
        },
        {
          "internalType": "string",
          "name": "color",
          "type": "string"
        },
        {
          "internalType": "uint256",
          "name": "voteCount",
          "type": "uint256"
        }
      ],
      "stateMutability": "view",
      "type": "function"
    },
    {
      "inputs": [
        {
          "internalType": "address",
          "name": "_voter",
          "type": "address"
        }
      ],
      "name": "getVote",
      "outputs": [
        {
          "internalType": "string",
          "name": "partyId",
          "type": "string"
        },
        {
          "internalType": "uint256",
          "name": "timestamp",
          "type": "uint256"
        },
        {
          "internalType": "bool",
          "name": "faceVerified",
          "type": "bool"
        },
        {
          "internalType": "bytes32",
          "name": "voteHash",
          "type": "bytes32"
        }
      ],
      "stateMutability": "view",
      "type": "function"
    },
    {
      "inputs": [],
      "name": "getVoterCount",
      "outputs": [
        {
          "internalType": "uint256",
          "name": "",
          "type": "uint256"
        }
      ],
      "stateMutability": "view",
      "type": "function"
    },
    {
      "inputs": [],
      "name": "getVotingStatus",
      "outputs": [
        {
          "internalType": "bool",
          "name": "_isActive",
          "type": "bool"
        },
        {
          "internalType": "uint256",
          "name": "_totalVotes",
          "type": "uint256"
        },
        {
          "internalType": "uint256",
          "name": "_startTime",
          "type": "uint256"
        },
        {
          "internalType": "uint256",
          "name": "_endTime",
          "type": "uint256"
        },
        {
          "internalType": "uint256",
          "name": "_partyCount",
          "type": "uint256"
        }
      ],
      "stateMutability": "view",
      "type": "function"
    },
    {
      "inputs": [
        {
          "internalType": "address",
          "name": "_voter",
          "type": "address"
        }
      ],
      "name": "hasUserVoted",
      "outputs": [
        {
          "internalType": "bool",
          "name": "",
          "type": "bool"
        }
      ],
      "stateMutability": "view",
      "type": "function"
    },
    {
      "inputs": [
        {
          "internalType": "address",
          "name": "",
          "type": "address"
        }
      ],
      "name": "hasVoted",
      "outputs": [
        {
          "internalType": "bool",
          "name": "",
          "type": "bool"
        }
      ],
      "stateMutability": "view",
      "type": "function"
    },
    {
      "inputs": [],
      "name": "isActive",
      "outputs": [
        {
          "internalType": "bool",
          "name": "",
          "type": "bool"
        }
      ],
      "stateMutability": "view",
      "type": "function"
    },
    {
      "inputs": [
        {
          "internalType": "string",
          "name": "",
          "type": "string"
        }
      ],
      "name": "parties",
      "outputs": [
        {
          "internalType": "string",
          "name": "id",
          "type": "string"
        },
        {
          "internalType": "string",
          "name": "name",
          "type": "string"
        },
        {
          "internalType": "string",
          "name": "logo",
          "type": "string"
        },
        {
          "internalType": "string",
          "name": "color",
          "type": "string"
        },
        {
          "internalType": "uint256",
          "name": "voteCount",
          "type": "uint256"
        },
        {
          "internalType": "bool",
          "name": "exists",
          "type": "bool"
        }
      ],
      "stateMutability": "view",
      "type": "function"
    },
    {
      "inputs": [
        {
          "internalType": "uint256",
          "name": "",
          "type": "uint256"
        }
      ],
      "name": "partyIds",
      "outputs": [
        {
          "internalType": "string",
          "name": "",
          "type": "string"
        }
      ],
      "stateMutability": "view",
      "type": "function"
    },
    {
      "inputs": [],
      "name": "resetVoting",
      "outputs": [],
      "stateMutability": "nonpayable",
      "type": "function"
    },
    {
      "inputs": [],
      "name": "sessionEndTime",
      "outputs": [
        {
          "internalType": "uint256",
          "name": "",
          "type": "uint256"
        }
      ],
      "stateMutability": "view",
      "type": "function"
    },
    {
      "inputs": [],
      "name": "sessionStartTime",
      "outputs": [
        {
          "internalType": "uint256",
          "name": "",
          "type": "uint256"
        }
      ],
      "stateMutability": "view",
      "type": "function"
    },
    {
      "inputs": [],
      "name": "startVoting",
      "outputs": [],
      "stateMutability": "nonpayable",
      "type": "function"
    },
    {
      "inputs": [],
      "name": "stopVoting",
      "outputs": [],
      "stateMutability": "nonpayable",
      "type": "function"
    },
    {
      "inputs": [],
      "name": "totalVotes",
      "outputs": [
        {
          "internalType": "uint256",
          "name": "",
          "type": "uint256"
        }
      ],
      "stateMutability": "view",
      "type": "function"
    },
    {
      "inputs": [
        {
          "internalType": "address",
          "name": "newAdmin",
          "type": "address"
        }
      ],
      "name": "transferAdmin",
      "outputs": [],
      "stateMutability": "nonpayable",
      "type": "function"
    },
    {
      "inputs": [
        {
          "internalType": "address",
          "name": "_voter",
          "type": "address"
        },
        {
          "internalType": "string",
          "name": "_partyId",
          "type": "string"
        },
        {
          "internalType": "uint256",
          "name": "_timestamp",
          "type": "uint256"
        },
        {
          "internalType": "bool",
          "name": "_faceVerified",
          "type": "bool"
        },
        {
          "internalType": "bytes32",
          "name": "_userHash",
          "type": "bytes32"
        }
      ],
      "name": "verifyVote",
      "outputs": [
        {
          "internalType": "bool",
          "name": "",
          "type": "bool"
        }
      ],
      "stateMutability": "view",
      "type": "function"
    },
    {
      "inputs": [
        {
          "internalType": "uint256",
          "name": "",
          "type": "uint256"
        }
      ],
      "name": "voters",
      "outputs": [
        {
          "internalType": "address",
          "name": "",
          "type": "address"
        }
      ],
      "stateMutability": "view",
      "type": "function"
    },
    {
      "inputs": [
        {
          "internalType": "address",
          "name": "",
          "type": "address"
        }
      ],
      "name": "votes",
      "outputs": [
        {
          "internalType": "address",
          "name": "voter",
          "type": "address"
        },
        {
          "internalType": "string",
          "name": "partyId",
          "type": "string"
        },
        {
          "internalType": "uint256",
          "name": "timestamp",
          "type": "uint256"
        },
        {
          "internalType": "bool",
          "name": "faceVerified",
          "type": "bool"
        },
        {
          "internalType": "bytes32",
          "name": "voteHash",
          "type": "bytes32"
        },
        {
          "internalType": "bool",
          "name": "exists",
          "type": "bool"
        }
      ],
      "stateMutability": "view",
      "type": "function"
    }
  ],
  "bytecode": "0x60806040523480156200001157600080fd5b50336000806101000a81548173ffffffffffffffffffffffffffffffffffffffff021916908373ffffffffffffffffffffffffffffffffffffffff16021790555060008060146101000a81548160ff02191690831515021790555060006003819055506200015c6040518060400160405280600681526020017f70617274793100000000000000000000000000000000000000000000000000008152506040518060400160405280601481526020017f50726f677265737369766520416c6c69616e63650000000000000000000000008152506040518060400160405280600481526020017ff09f9fa6000000000000000000000000000000000000000000000000000000008152506040518060400160405280600781526020017f23336238326636000000000000000000000000000000000000000000000000008152506200041a60201b60201c565b620002446040518060400160405280600681526020017f70617274793200000000000000000000000000000000000000000000000000008152506040518060400160405280601081526020017f44656d6f63726174696320556e697479000000000000000000000000000000008152506040518060400160405280600481526020017ff09f9fa9000000000000000000000000000000000000000000000000000000008152506040518060400160405280600781526020017f23313062393831000000000000000000000000000000000000000000000000008152506200041a60201b60201c565b6200032c6040518060400160405280600681526020017f70617274793300000000000000000000000000000000000000000000000000008152506040518060400160405280601281526020017f50656f706c65277320436f616c6974696f6e00000000000000000000000000008152506040518060400160405280600481526020017ff09f9fa5000000000000000000000000000000000000000000000000000000008152506040518060400160405280600781526020017f23656634343434000000000000000000000000000000000000000000000000008152506200041a60201b60201c565b620004146040518060400160405280600681526020017f70617274793400000000000000000000000000000000000000000000000000008152506040518060400160405280600e81526020017f4e6174696f6e616c2046726f6e740000000000000000000000000000000000008152506040518060400160405280600481526020017ff09f9fa8000000000000000000000000000000000000000000000000000000008152506040518060400160405280600781526020017f23663539653062000000000000000000000000000000000000000000000000008152506200041a60201b60201c565b62000adc565b6004846040516200042c91906200065d565b908152602001604051809103902060050160009054906101000a900460ff16156200048e576040517f08c379a00000000000000000000000000000000000000000000000000000000081526004016200048590620006d7565b60405180910390fd5b6040518060c001604052808581526020018481526020018381526020018281526020016000815260200160011515815250600485604051620004d191906200065d565b90815260200160405180910390206000820151816000019081620004f6919062000968565b5060208201518160010190816200050e919062000968565b50604082015181600201908162000526919062000968565b5060608201518160030190816200053e919062000968565b506080820151816004015560a08201518160050160006101000a81548160ff021916908315150217905550905050600784908060018154018082558091505060019003906000526020600020016000909190919091509081620005a2919062000968565b507f6c0791dd68192494366f1bf9b32d797727680fadee17331a9e101bfcbafb9b968484604051620005d692919062000aa1565b60405180910390a150505050565b600081519050919050565b600081905092915050565b60005b838110156200061a578082015181840152602081019050620005fd565b60008484015250505050565b60006200063382620005e4565b6200063f8185620005ef565b935062000651818560208601620005fa565b80840191505092915050565b60006200066b828462000626565b915081905092915050565b600082825260208201905092915050565b7f506172747920616c726561647920657869737473000000000000000000000000600082015250565b6000620006bf60148362000676565b9150620006cc8262000687565b602082019050919050565b60006020820190508181036000830152620006f281620006b0565b9050919050565b7f4e487b7100000000000000000000000000000000000000000000000000000000600052604160045260246000fd5b7f4e487b7100000000000000000000000000000000000000000000000000000000600052602260045260246000fd5b600060028204905060018216806200077057607f821691505b60208210810362000786576200078562000728565b5b50919050565b60008190508160005260206000209050919050565b60006020601f8301049050919050565b600082821b905092915050565b600060088302620007f07fffffffffffffffffffffffffffffffffffffffffffffffffffffffffffffffff82620007b1565b620007fc8683620007b1565b95508019841693508086168417925050509392505050565b6000819050919050565b6000819050919050565b600062000849620008436200083d8462000814565b6200081e565b62000814565b9050919050565b6000819050919050565b620008658362000828565b6200087d620008748262000850565b848454620007be565b825550505050565b600090565b6200089462000885565b620008a18184846200085a565b505050565b5b81811015620008c957620008bd6000826200088a565b600181019050620008a7565b5050565b601f8211156200091857620008e2816200078c565b620008ed84620007a1565b81016020851015620008fd578190505b620009156200090c85620007a1565b830182620008a6565b50505b505050565b600082821c905092915050565b60006200093d600019846008026200091d565b1980831691505092915050565b60006200095883836200092a565b9150826002028217905092915050565b6200097382620005e4565b67ffffffffffffffff8111156200098f576200098e620006f9565b5b6200099b825462000757565b620009a8828285620008cd565b600060209050601f831160018114620009e05760008415620009cb578287015190505b620009d785826200094a565b86555062000a47565b601f198416620009f0866200078c565b60005b8281101562000a1a57848901518255600182019150602085019450602081019050620009f3565b8683101562000a3a578489015162000a36601f8916826200092a565b8355505b6001600288020188555050505b505050505050565b6000601f19601f8301169050919050565b600062000a6d82620005e4565b62000a79818562000676565b935062000a8b818560208601620005fa565b62000a968162000a4f565b840191505092915050565b6000604082019050818103600083015262000abd818562000a60565b9050818103602083015262000ad3818462000a60565b90509392505050565b6140808062000aec6000396000f3fe608060405234801561001057600080fd5b50600436106101735760003560e01c80637fabe80a116100de578063bb57533311610097578063e5d02ba511610071578063e5d02ba514610479578063f851a44014610495578063fab2f86b146104b3578063fc1457ef146104bd57610173565b8063bb575333146103f6578063d8bff5a514610414578063da58c7d91461044957610173565b80637fabe80a14610308578063856e698c146103385780638d337b8114610342578063aa09ac3c14610375578063b8977dd5146103aa578063bb23cc99146103da57610173565b806322f3e2d41161013057806322f3e2d41461023d5780633411f2a01461025b5780634f6c90cf14610279578063581c281c146102a957806375829def146102cb57806376d9be08146102e757610173565b806309eef43e146101785780630d15fd77146101a857806311174a29146101c65780631158b39f146101e4578063154abdb7146102175780631ec6b60a14610233575b600080fd5b610192600480360381019061018d9190612abb565b6104db565b60405161019f9190612b03565b60405180910390f35b6101b06104fb565b6040516101bd9190612b37565b60405180910390f35b6101ce610501565b6040516101db9190612b37565b60405180910390f35b6101fe60048036038101906101f99190612c98565b61050e565b60405161020e9493929190612d60565b60405180910390f35b610231600480360381019061022c9190612dba565b610841565b005b61023b6108e1565b005b610245610a1a565b6040516102529190612b03565b60405180910390f35b610263610a2d565b6040516102709190612b37565b60405180910390f35b610293600480360381019061028e9190612ebd565b610a33565b6040516102a09190612eea565b60405180910390f35b6102b1610adf565b6040516102c2959493929190612f0c565b60405180910390f35b6102e560048036038101906102e09190612abb565b610b16565b005b6102ef610c56565b6040516102ff9493929190613129565b60405180910390f35b610322600480360381019061031d9190612abb565b61119b565b60405161032f9190612b03565b60405180910390f35b6103406111f1565b005b61035c60048036038101906103579190612abb565b6114c8565b60405161036c94939291906131a3565b60405180910390f35b61038f600480360381019061038a9190612c98565b6117c6565b6040516103a1969594939291906131ef565b60405180910390f35b6103c460048036038101906103bf91906132c4565b611a45565b6040516103d19190612b03565b60405180910390f35b6103f460048036038101906103ef919061335b565b611b5a565b005b6103fe611fb4565b60405161040b9190612b37565b60405180910390f35b61042e60048036038101906104299190612abb565b611fba565b604051610440969594939291906133d9565b60405180910390f35b610463600480360381019061045e9190612ebd565b6120b8565b6040516104709190613441565b60405180910390f35b610493600480360381019061048e919061345c565b6120f7565b005b61049d6125e0565b6040516104aa9190613441565b60405180910390f35b6104bb612604565b005b6104c561273b565b6040516104d291906134df565b60405180910390f35b60066020528060005260406000206000915054906101000a900460ff1681565b60035481565b6000600880549050905090565b60608060606000600485604051610525919061353d565b908152602001604051809103902060050160009054906101000a900460ff16610583576040517f08c379a000000000000000000000000000000000000000000000000000000000815260040161057a906135a0565b60405180910390fd5b6000600486604051610595919061353d565b90815260200160405180910390206040518060c00160405290816000820180546105be906135ef565b80601f01602080910402602001604051908101604052809291908181526020018280546105ea906135ef565b80156106375780601f1061060c57610100808354040283529160200191610637565b820191906000526020600020905b81548152906001019060200180831161061a57829003601f168201915b50505050508152602001600182018054610650906135ef565b80601f016020809104026020016040519081016040528092919081815260200182805461067c906135ef565b80156106c95780601f1061069e576101008083540402835291602001916106c9565b820191906000526020600020905b8154815290600101906020018083116106ac57829003601f168201915b505050505081526020016002820180546106e2906135ef565b80601f016020809104026020016040519081016040528092919081815260200182805461070e906135ef565b801561075b5780601f106107305761010080835404028352916020019161075b565b820191906000526020600020905b81548152906001019060200180831161073e57829003601f168201915b50505050508152602001600382018054610774906135ef565b80601f01602080910402602001604051908101604052809291908181526020018280546107a0906135ef565b80156107ed5780601f106107c2576101008083540402835291602001916107ed565b820191906000526020600020905b8154815290600101906020018083116107d057829003601f168201915b50505050508152602001600482015481526020016005820160009054906101000a900460ff161515151581525050905080602001518160400151826060015183608001519450945094509450509193509193565b60008054906101000a900473ffffffffffffffffffffffffffffffffffffffff1673ffffffffffffffffffffffffffffffffffffffff163373ffffffffffffffffffffffffffffffffffffffff16146108cf576040517f08c379a00000000000000000000000000000000000000000000000000000000081526004016108c690613692565b60405180910390fd5b6108db84848484612814565b50505050565b60008054906101000a900473ffffffffffffffffffffffffffffffffffffffff1673ffffffffffffffffffffffffffffffffffffffff163373ffffffffffffffffffffffffffffffffffffffff161461096f576040517f08c379a000000000000000000000000000000000000000000000000000000000815260040161096690613692565b60405180910390fd5b600060149054906101000a900460ff16156109bf576040517f08c379a00000000000000000000000000000000000000000000000000000000081526004016109b6906136fe565b60405180910390fd5b6001600060146101000a81548160ff021916908315150217905550426001819055507fcf33babc496bb6dc2942b39cb7b75766bbbadf7da50d176ff8c513e99114023942604051610a109190612b37565b60405180910390a1565b600060149054906101000a900460ff1681565b60015481565b60078181548110610a4357600080fd5b906000526020600020016000915090508054610a5e906135ef565b80601f0160208091040260200160405190810160405280929190818152602001828054610a8a906135ef565b8015610ad75780601f10610aac57610100808354040283529160200191610ad7565b820191906000526020600020905b815481529060010190602001808311610aba57829003601f168201915b505050505081565b60008060008060008060149054906101000a900460ff16600354600154600254600780549050945094509450945094509091929394565b60008054906101000a900473ffffffffffffffffffffffffffffffffffffffff1673ffffffffffffffffffffffffffffffffffffffff163373ffffffffffffffffffffffffffffffffffffffff1614610ba4576040517f08c379a0000000000000000000000000000000000000000000000000000000008152600401610b9b90613692565b60405180910390fd5b600073ffffffffffffffffffffffffffffffffffffffff168173ffffffffffffffffffffffffffffffffffffffff1603610c13576040517f08c379a0000000000000000000000000000000000000000000000000000000008152600401610c0a9061376a565b60405180910390fd5b806000806101000a81548173ffffffffffffffffffffffffffffffffffffffff021916908373ffffffffffffffffffffffffffffffffffffffff16021790555050565b606080606080600060078054905090508067ffffffffffffffff811115610c8057610c7f612b6d565b5b604051908082528060200260200182016040528015610cb357816020015b6060815260200190600190039081610c9e5790505b5094508067ffffffffffffffff811115610cd057610ccf612b6d565b5b604051908082528060200260200182016040528015610d0357816020015b6060815260200190600190039081610cee5790505b5093508067ffffffffffffffff811115610d2057610d1f612b6d565b5b604051908082528060200260200182016040528015610d5357816020015b6060815260200190600190039081610d3e5790505b5092508067ffffffffffffffff811115610d7057610d6f612b6d565b5b604051908082528060200260200182016040528015610d9e5781602001602082028036833780820191505090505b50915060005b8181101561119357600060078281548110610dc257610dc161378a565b5b906000526020600020018054610dd7906135ef565b80601f0160208091040260200160405190810160405280929190818152602001828054610e03906135ef565b8015610e505780601f10610e2557610100808354040283529160200191610e50565b820191906000526020600020905b815481529060010190602001808311610e3357829003601f168201915b505050505090506000600482604051610e69919061353d565b90815260200160405180910390206040518060c0016040529081600082018054610e92906135ef565b80601f0160208091040260200160405190810160405280929190818152602001828054610ebe906135ef565b8015610f0b5780601f10610ee057610100808354040283529160200191610f0b565b820191906000526020600020905b815481529060010190602001808311610eee57829003601f168201915b50505050508152602001600182018054610f24906135ef565b80601f0160208091040260200160405190810160405280929190818152602001828054610f50906135ef565b8015610f9d5780601f10610f7257610100808354040283529160200191610f9d565b820191906000526020600020905b815481529060010190602001808311610f8057829003601f168201915b50505050508152602001600282018054610fb6906135ef565b80601f0160208091040260200160405190810160405280929190818152602001828054610fe2906135ef565b801561102f5780601f106110045761010080835404028352916020019161102f565b820191906000526020600020905b81548152906001019060200180831161101257829003601f168201915b50505050508152602001600382018054611048906135ef565b80601f0160208091040260200160405190810160405280929190818152602001828054611074906135ef565b80156110c15780601f10611096576101008083540402835291602001916110c1565b820191906000526020600020905b8154815290600101906020018083116110a457829003601f168201915b50505050508152602001600482015481526020016005820160009054906101000a900460ff161515151581525050905080600001518884815181106111095761110861378a565b5b6020026020010181905250806020015187848151811061112c5761112b61378a565b5b6020026020010181905250806040015186848151811061114f5761114e61378a565b5b602002602001018190525080608001518584815181106111725761117161378a565b5b6020026020010181815250505050808061118b906137e8565b915050610da4565b505090919293565b6000600660008373ffffffffffffffffffffffffffffffffffffffff1673ffffffffffffffffffffffffffffffffffffffff16815260200190815260200160002060009054906101000a900460ff169050919050565b60008054906101000a900473ffffffffffffffffffffffffffffffffffffffff1673ffffffffffffffffffffffffffffffffffffffff163373ffffffffffffffffffffffffffffffffffffffff161461127f576040517f08c379a000000000000000000000000000000000000000000000000000000000815260040161127690613692565b60405180910390fd5b60005b6008805490508110156113e6576000600882815481106112a5576112a461378a565b5b9060005260206000200160009054906101000a900473ffffffffffffffffffffffffffffffffffffffff169050600560008273ffffffffffffffffffffffffffffffffffffffff1673ffffffffffffffffffffffffffffffffffffffff168152602001908152602001600020600080820160006101000a81549073ffffffffffffffffffffffffffffffffffffffff021916905560018201600061134991906129cb565b60028201600090556003820160006101000a81549060ff021916905560048201600090556005820160006101000a81549060ff02191690555050600660008273ffffffffffffffffffffffffffffffffffffffff1673ffffffffffffffffffffffffffffffffffffffff16815260200190815260200160002060006101000a81549060ff02191690555080806113de906137e8565b915050611282565b5060005b60078054905081101561144e57600060046007838154811061140f5761140e61378a565b5b9060005260206000200160405161142691906138c8565b9081526020016040518091039020600401819055508080611446906137e8565b9150506113ea565b506008600061145d9190612a0b565b600060038190555060008060146101000a81548160ff021916908315150217905550600060018190555060006002819055507f41b2ee700a80ceac0ac81d11a0c4b9f935b68de0b557e9e7da3681077bf34ba4426040516114be9190612b37565b60405180910390a1565b606060008060008473ffffffffffffffffffffffffffffffffffffffff163373ffffffffffffffffffffffffffffffffffffffff161480611554575060008054906101000a900473ffffffffffffffffffffffffffffffffffffffff1673ffffffffffffffffffffffffffffffffffffffff163373ffffffffffffffffffffffffffffffffffffffff16145b611593576040517f08c379a000000000000000000000000000000000000000000000000000000000815260040161158a9061392b565b60405180910390fd5b600560008673ffffffffffffffffffffffffffffffffffffffff1673ffffffffffffffffffffffffffffffffffffffff16815260200190815260200160002060050160009054906101000a900460ff16611622576040517f08c379a000000000000000000000000000000000000000000000000000000000815260040161161990613997565b60405180910390fd5b6000600560008773ffffffffffffffffffffffffffffffffffffffff1673ffffffffffffffffffffffffffffffffffffffff1681526020019081526020016000206040518060c00160405290816000820160009054906101000a900473ffffffffffffffffffffffffffffffffffffffff1673ffffffffffffffffffffffffffffffffffffffff1673ffffffffffffffffffffffffffffffffffffffff1681526020016001820180546116d4906135ef565b80601f0160208091040260200160405190810160405280929190818152602001828054611700906135ef565b801561174d5780601f106117225761010080835404028352916020019161174d565b820191906000526020600020905b81548152906001019060200180831161173057829003601f168201915b50505050508152602001600282015481526020016003820160009054906101000a900460ff16151515158152602001600482015481526020016005820160009054906101000a900460ff161515151581525050905080602001518160400151826060015183608001519450945094509450509193509193565b6004818051602081018201805184825260208301602085012081835280955050505050506000915090508060000180546117ff906135ef565b80601f016020809104026020016040519081016040528092919081815260200182805461182b906135ef565b80156118785780601f1061184d57610100808354040283529160200191611878565b820191906000526020600020905b81548152906001019060200180831161185b57829003601f168201915b50505050509080600101805461188d906135ef565b80601f01602080910402602001604051908101604052809291908181526020018280546118b9906135ef565b80156119065780601f106118db57610100808354040283529160200191611906565b820191906000526020600020905b8154815290600101906020018083116118e957829003601f168201915b50505050509080600201805461191b906135ef565b80601f0160208091040260200160405190810160405280929190818152602001828054611947906135ef565b80156119945780601f1061196957610100808354040283529160200191611994565b820191906000526020600020905b81548152906001019060200180831161197757829003601f168201915b5050505050908060030180546119a9906135ef565b80601f01602080910402602001604051908101604052809291908181526020018280546119d5906135ef565b8015611a225780601f106119f757610100808354040283529160200191611a22565b820191906000526020600020905b815481529060010190602001808311611a0557829003601f168201915b5050505050908060040154908060050160009054906101000a900460ff16905086565b6000600560008773ffffffffffffffffffffffffffffffffffffffff1673ffffffffffffffffffffffffffffffffffffffff16815260200190815260200160002060050160009054906101000a900460ff16611ad6576040517f08c379a0000000000000000000000000000000000000000000000000000000008152600401611acd90613997565b60405180910390fd5b60008686868686604051602001611af1959493929190613a89565b60405160208183030381529060405280519060200120905080600560008973ffffffffffffffffffffffffffffffffffffffff1673ffffffffffffffffffffffffffffffffffffffff168152602001908152602001600020600401541491505095945050505050565b600060149054906101000a900460ff16611ba9576040517f08c379a0000000000000000000000000000000000000000000000000000000008152600401611ba090613b30565b60405180910390fd5b600660003373ffffffffffffffffffffffffffffffffffffffff1673ffffffffffffffffffffffffffffffffffffffff16815260200190815260200160002060009054906101000a900460ff1615611c36576040517f08c379a0000000000000000000000000000000000000000000000000000000008152600401611c2d90613b9c565b60405180910390fd5b600483604051611c46919061353d565b908152602001604051809103902060050160009054906101000a900460ff16611ca4576040517f08c379a0000000000000000000000000000000000000000000000000000000008152600401611c9b90613c08565b60405180910390fd5b81611ce4576040517f08c379a0000000000000000000000000000000000000000000000000000000008152600401611cdb90613c74565b60405180910390fd5b60003384428585604051602001611cff959493929190613a89565b6040516020818303038152906040528051906020012090506040518060c001604052803373ffffffffffffffffffffffffffffffffffffffff168152602001858152602001428152602001841515815260200182815260200160011515815250600560003373ffffffffffffffffffffffffffffffffffffffff1673ffffffffffffffffffffffffffffffffffffffff16815260200190815260200160002060008201518160000160006101000a81548173ffffffffffffffffffffffffffffffffffffffff021916908373ffffffffffffffffffffffffffffffffffffffff1602179055506020820151816001019081611dfa9190613e2b565b506040820151816002015560608201518160030160006101000a81548160ff0219169083151502179055506080820151816004015560a08201518160050160006101000a81548160ff0219169083151502179055509050506001600660003373ffffffffffffffffffffffffffffffffffffffff1673ffffffffffffffffffffffffffffffffffffffff16815260200190815260200160002060006101000a81548160ff0219169083151502179055506008339080600181540180825580915050600190039060005260206000200160009091909190916101000a81548173ffffffffffffffffffffffffffffffffffffffff021916908373ffffffffffffffffffffffffffffffffffffffff160217905550600484604051611f1d919061353d565b90815260200160405180910390206004016000815480929190611f3f906137e8565b919050555060036000815480929190611f57906137e8565b91905055503373ffffffffffffffffffffffffffffffffffffffff167fa3a793bc871e6341164a1517455e5783c5ed7aebbfddf8b08308650feb3bab4b858342604051611fa693929190613efd565b60405180910390a250505050565b60025481565b60056020528060005260406000206000915090508060000160009054906101000a900473ffffffffffffffffffffffffffffffffffffffff1690806001018054612003906135ef565b80601f016020809104026020016040519081016040528092919081815260200182805461202f906135ef565b801561207c5780601f106120515761010080835404028352916020019161207c565b820191906000526020600020905b81548152906001019060200180831161205f57829003601f168201915b5050505050908060020154908060030160009054906101000a900460ff16908060040154908060050160009054906101000a900460ff16905086565b600881815481106120c857600080fd5b906000526020600020016000915054906101000a900473ffffffffffffffffffffffffffffffffffffffff1681565b60008054906101000a900473ffffffffffffffffffffffffffffffffffffffff1673ffffffffffffffffffffffffffffffffffffffff163373ffffffffffffffffffffffffffffffffffffffff1614612185576040517f08c379a000000000000000000000000000000000000000000000000000000000815260040161217c90613692565b60405180910390fd5b600060149054906101000a900460ff166121d4576040517f08c379a00000000000000000000000000000000000000000000000000000000081526004016121cb90613b30565b60405180910390fd5b6004836040516121e4919061353d565b908152602001604051809103902060050160009054906101000a900460ff16612242576040517f08c379a000000000000000000000000000000000000000000000000000000000815260040161223990613c08565b60405180910390fd5b81612282576040517f08c379a000000000000000000000000000000000000000000000000000000000815260040161227990613c74565b60405180910390fd5b600660008573ffffffffffffffffffffffffffffffffffffffff1673ffffffffffffffffffffffffffffffffffffffff16815260200190815260200160002060009054906101000a900460ff161561230f576040517f08c379a000000000000000000000000000000000000000000000000000000000815260040161230690613b9c565b60405180910390fd5b6000848442858560405160200161232a959493929190613a89565b6040516020818303038152906040528051906020012090506040518060c001604052808673ffffffffffffffffffffffffffffffffffffffff168152602001858152602001428152602001841515815260200182815260200160011515815250600560008773ffffffffffffffffffffffffffffffffffffffff1673ffffffffffffffffffffffffffffffffffffffff16815260200190815260200160002060008201518160000160006101000a81548173ffffffffffffffffffffffffffffffffffffffff021916908373ffffffffffffffffffffffffffffffffffffffff16021790555060208201518160010190816124259190613e2b565b506040820151816002015560608201518160030160006101000a81548160ff0219169083151502179055506080820151816004015560a08201518160050160006101000a81548160ff0219169083151502179055509050506001600660008773ffffffffffffffffffffffffffffffffffffffff1673ffffffffffffffffffffffffffffffffffffffff16815260200190815260200160002060006101000a81548160ff0219169083151502179055506008859080600181540180825580915050600190039060005260206000200160009091909190916101000a81548173ffffffffffffffffffffffffffffffffffffffff021916908373ffffffffffffffffffffffffffffffffffffffff160217905550600484604051612548919061353d565b9081526020016040518091039020600401600081548092919061256a906137e8565b919050555060036000815480929190612582906137e8565b91905055508473ffffffffffffffffffffffffffffffffffffffff167fa3a793bc871e6341164a1517455e5783c5ed7aebbfddf8b08308650feb3bab4b8583426040516125d193929190613efd565b60405180910390a25050505050565b60008054906101000a900473ffffffffffffffffffffffffffffffffffffffff1681565b60008054906101000a900473ffffffffffffffffffffffffffffffffffffffff1673ffffffffffffffffffffffffffffffffffffffff163373ffffffffffffffffffffffffffffffffffffffff1614612692576040517f08c379a000000000000000000000000000000000000000000000000000000000815260040161268990613692565b60405180910390fd5b600060149054906101000a900460ff166126e1576040517f08c379a00000000000000000000000000000000000000000000000000000000081526004016126d890613f87565b60405180910390fd5b60008060146101000a81548160ff021916908315150217905550426002819055507f23bd41c663df8b607b6ed78ec56ec67552bcea90d09a8a91d02562b142a8fbdd426040516127319190612b37565b60405180910390a1565b60606007805480602002602001604051908101604052809291908181526020016000905b8282101561280b57838290600052602060002001805461277e906135ef565b80601f01602080910402602001604051908101604052809291908181526020018280546127aa906135ef565b80156127f75780601f106127cc576101008083540402835291602001916127f7565b820191906000526020600020905b8154815290600101906020018083116127da57829003601f168201915b50505050508152602001906001019061275f565b50505050905090565b600484604051612824919061353d565b908152602001604051809103902060050160009054906101000a900460ff1615612883576040517f08c379a000000000000000000000000000000000000000000000000000000000815260040161287a90613ff3565b60405180910390fd5b6040518060c0016040528085815260200184815260200183815260200182815260200160008152602001600115158152506004856040516128c4919061353d565b908152602001604051809103902060008201518160000190816128e79190613e2b565b5060208201518160010190816128fd9190613e2b565b5060408201518160020190816129139190613e2b565b5060608201518160030190816129299190613e2b565b506080820151816004015560a08201518160050160006101000a81548160ff02191690831515021790555090505060078490806001815401808255809150506001900390600052602060002001600090919091909150908161298b9190613e2b565b507f6c0791dd68192494366f1bf9b32d797727680fadee17331a9e101bfcbafb9b9684846040516129bd929190614013565b60405180910390a150505050565b5080546129d7906135ef565b6000825580601f106129e95750612a08565b601f016020900490600052602060002090810190612a079190612a2c565b5b50565b5080546000825590600052602060002090810190612a299190612a2c565b50565b5b80821115612a45576000816000905550600101612a2d565b5090565b6000604051905090565b600080fd5b600080fd5b600073ffffffffffffffffffffffffffffffffffffffff82169050919050565b6000612a8882612a5d565b9050919050565b612a9881612a7d565b8114612aa357600080fd5b50565b600081359050612ab581612a8f565b92915050565b600060208284031215612ad157612ad0612a53565b5b6000612adf84828501612aa6565b91505092915050565b60008115159050919050565b612afd81612ae8565b82525050565b6000602082019050612b186000830184612af4565b92915050565b6000819050919050565b612b3181612b1e565b82525050565b6000602082019050612b4c6000830184612b28565b92915050565b600080fd5b600080fd5b6000601f19601f8301169050919050565b7f4e487b7100000000000000000000000000000000000000000000000000000000600052604160045260246000fd5b612ba582612b5c565b810181811067ffffffffffffffff82111715612bc457612bc3612b6d565b5b80604052505050565b6000612bd7612a49565b9050612be38282612b9c565b919050565b600067ffffffffffffffff821115612c0357612c02612b6d565b5b612c0c82612b5c565b9050602081019050919050565b82818337600083830152505050565b6000612c3b612c3684612be8565b612bcd565b905082815260208101848484011115612c5757612c56612b57565b5b612c62848285612c19565b509392505050565b600082601f830112612c7f57612c7e612b52565b5b8135612c8f848260208601612c28565b91505092915050565b600060208284031215612cae57612cad612a53565b5b600082013567ffffffffffffffff811115612ccc57612ccb612a58565b5b612cd884828501612c6a565b91505092915050565b600081519050919050565b600082825260208201905092915050565b60005b83811015612d1b578082015181840152602081019050612d00565b60008484015250505050565b6000612d3282612ce1565b612d3c8185612cec565b9350612d4c818560208601612cfd565b612d5581612b5c565b840191505092915050565b60006080820190508181036000830152612d7a8187612d27565b90508181036020830152612d8e8186612d27565b90508181036040830152612da28185612d27565b9050612db16060830184612b28565b95945050505050565b60008060008060808587031215612dd457612dd3612a53565b5b600085013567ffffffffffffffff811115612df257612df1612a58565b5b612dfe87828801612c6a565b945050602085013567ffffffffffffffff811115612e1f57612e1e612a58565b5b612e2b87828801612c6a565b935050604085013567ffffffffffffffff811115612e4c57612e4b612a58565b5b612e5887828801612c6a565b925050606085013567ffffffffffffffff811115612e7957612e78612a58565b5b612e8587828801612c6a565b91505092959194509250565b612e9a81612b1e565b8114612ea557600080fd5b50565b600081359050612eb781612e91565b92915050565b600060208284031215612ed357612ed2612a53565b5b6000612ee184828501612ea8565b91505092915050565b60006020820190508181036000830152612f048184612d27565b905092915050565b600060a082019050612f216000830188612af4565b612f2e6020830187612b28565b612f3b6040830186612b28565b612f486060830185612b28565b612f556080830184612b28565b9695505050505050565b600081519050919050565b600082825260208201905092915050565b6000819050602082019050919050565b600082825260208201905092915050565b6000612fa782612ce1565b612fb18185612f8b565b9350612fc1818560208601612cfd565b612fca81612b5c565b840191505092915050565b6000612fe18383612f9c565b905092915050565b6000602082019050919050565b600061300182612f5f565b61300b8185612f6a565b93508360208202850161301d85612f7b565b8060005b85811015613059578484038952815161303a8582612fd5565b945061304583612fe9565b925060208a01995050600181019050613021565b50829750879550505050505092915050565b600081519050919050565b600082825260208201905092915050565b6000819050602082019050919050565b6130a081612b1e565b82525050565b60006130b28383613097565b60208301905092915050565b6000602082019050919050565b60006130d68261306b565b6130e08185613076565b93506130eb83613087565b8060005b8381101561311c57815161310388826130a6565b975061310e836130be565b9250506001810190506130ef565b5085935050505092915050565b600060808201905081810360008301526131438187612ff6565b905081810360208301526131578186612ff6565b9050818103604083015261316b8185612ff6565b9050818103606083015261317f81846130cb565b905095945050505050565b6000819050919050565b61319d8161318a565b82525050565b600060808201905081810360008301526131bd8187612d27565b90506131cc6020830186612b28565b6131d96040830185612af4565b6131e66060830184613194565b95945050505050565b600060c08201905081810360008301526132098189612d27565b9050818103602083015261321d8188612d27565b905081810360408301526132318187612d27565b905081810360608301526132458186612d27565b90506132546080830185612b28565b61326160a0830184612af4565b979650505050505050565b61327581612ae8565b811461328057600080fd5b50565b6000813590506132928161326c565b92915050565b6132a18161318a565b81146132ac57600080fd5b50565b6000813590506132be81613298565b92915050565b600080600080600060a086880312156132e0576132df612a53565b5b60006132ee88828901612aa6565b955050602086013567ffffffffffffffff81111561330f5761330e612a58565b5b61331b88828901612c6a565b945050604061332c88828901612ea8565b935050606061333d88828901613283565b925050608061334e888289016132af565b9150509295509295909350565b60008060006060848603121561337457613373612a53565b5b600084013567ffffffffffffffff81111561339257613391612a58565b5b61339e86828701612c6a565b93505060206133af86828701613283565b92505060406133c0868287016132af565b9150509250925092565b6133d381612a7d565b82525050565b600060c0820190506133ee60008301896133ca565b81810360208301526134008188612d27565b905061340f6040830187612b28565b61341c6060830186612af4565b6134296080830185613194565b61343660a0830184612af4565b979650505050505050565b600060208201905061345660008301846133ca565b92915050565b6000806000806080858703121561347657613475612a53565b5b600061348487828801612aa6565b945050602085013567ffffffffffffffff8111156134a5576134a4612a58565b5b6134b187828801612c6a565b93505060406134c287828801613283565b92505060606134d3878288016132af565b91505092959194509250565b600060208201905081810360008301526134f98184612ff6565b905092915050565b600081905092915050565b600061351782612ce1565b6135218185613501565b9350613531818560208601612cfd565b80840191505092915050565b6000613549828461350c565b915081905092915050565b7f506172747920646f6573206e6f74206578697374000000000000000000000000600082015250565b600061358a601483612cec565b915061359582613554565b602082019050919050565b600060208201905081810360008301526135b98161357d565b9050919050565b7f4e487b7100000000000000000000000000000000000000000000000000000000600052602260045260246000fd5b6000600282049050600182168061360757607f821691505b60208210810361361a576136196135c0565b5b50919050565b7f4f6e6c792061646d696e2063616e20706572666f726d2074686973206163746960008201527f6f6e000000000000000000000000000000000000000000000000000000000000602082015250565b600061367c602283612cec565b915061368782613620565b604082019050919050565b600060208201905081810360008301526136ab8161366f565b9050919050565b7f566f74696e6720616c7265616479206163746976650000000000000000000000600082015250565b60006136e8601583612cec565b91506136f3826136b2565b602082019050919050565b60006020820190508181036000830152613717816136db565b9050919050565b7f496e76616c696420616464726573730000000000000000000000000000000000600082015250565b6000613754600f83612cec565b915061375f8261371e565b602082019050919050565b6000602082019050818103600083015261378381613747565b9050919050565b7f4e487b7100000000000000000000000000000000000000000000000000000000600052603260045260246000fd5b7f4e487b7100000000000000000000000000000000000000000000000000000000600052601160045260246000fd5b60006137f382612b1e565b91507fffffffffffffffffffffffffffffffffffffffffffffffffffffffffffffffff8203613825576138246137b9565b5b600182019050919050565b60008190508160005260206000209050919050565b60008154613852816135ef565b61385c8186613501565b94506001821660008114613877576001811461388c576138bf565b60ff19831686528115158202860193506138bf565b61389585613830565b60005b838110156138b757815481890152600182019150602081019050613898565b838801955050505b50505092915050565b60006138d48284613845565b915081905092915050565b7f556e617574686f72697a65642061636365737300000000000000000000000000600082015250565b6000613915601383612cec565b9150613920826138df565b602082019050919050565b6000602082019050818103600083015261394481613908565b9050919050565b7f4e6f20766f746520666f756e6400000000000000000000000000000000000000600082015250565b6000613981600d83612cec565b915061398c8261394b565b602082019050919050565b600060208201905081810360008301526139b081613974565b9050919050565b60008160601b9050919050565b60006139cf826139b7565b9050919050565b60006139e1826139c4565b9050919050565b6139f96139f482612a7d565b6139d6565b82525050565b6000819050919050565b613a1a613a1582612b1e565b6139ff565b82525050565b60008160f81b9050919050565b6000613a3882613a20565b9050919050565b6000613a4a82613a2d565b9050919050565b613a62613a5d82612ae8565b613a3f565b82525050565b6000819050919050565b613a83613a7e8261318a565b613a68565b82525050565b6000613a9582886139e8565b601482019150613aa5828761350c565b9150613ab18286613a09565b602082019150613ac18285613a51565b600182019150613ad18284613a72565b6020820191508190509695505050505050565b7f566f74696e67206973206e6f7420616374697665000000000000000000000000600082015250565b6000613b1a601483612cec565b9150613b2582613ae4565b602082019050919050565b60006020820190508181036000830152613b4981613b0d565b9050919050565b7f416c726561647920766f74656400000000000000000000000000000000000000600082015250565b6000613b86600d83612cec565b9150613b9182613b50565b602082019050919050565b60006020820190508181036000830152613bb581613b79565b9050919050565b7f496e76616c696420706172747900000000000000000000000000000000000000600082015250565b6000613bf2600d83612cec565b9150613bfd82613bbc565b602082019050919050565b60006020820190508181036000830152613c2181613be5565b9050919050565b7f4661636520766572696669636174696f6e207265717569726564000000000000600082015250565b6000613c5e601a83612cec565b9150613c6982613c28565b602082019050919050565b60006020820190508181036000830152613c8d81613c51565b9050919050565b60006020601f8301049050919050565b600082821b905092915050565b600060088302613ce17fffffffffffffffffffffffffffffffffffffffffffffffffffffffffffffffff82613ca4565b613ceb8683613ca4565b95508019841693508086168417925050509392505050565b6000819050919050565b6000613d28613d23613d1e84612b1e565b613d03565b612b1e565b9050919050565b6000819050919050565b613d4283613d0d565b613d56613d4e82613d2f565b848454613cb1565b825550505050565b600090565b613d6b613d5e565b613d76818484613d39565b505050565b5b81811015613d9a57613d8f600082613d63565b600181019050613d7c565b5050565b601f821115613ddf57613db081613830565b613db984613c94565b81016020851015613dc8578190505b613ddc613dd485613c94565b830182613d7b565b50505b505050565b600082821c905092915050565b6000613e0260001984600802613de4565b1980831691505092915050565b6000613e1b8383613df1565b9150826002028217905092915050565b613e3482612ce1565b67ffffffffffffffff811115613e4d57613e4c612b6d565b5b613e5782546135ef565b613e62828285613d9e565b600060209050601f831160018114613e955760008415613e83578287015190505b613e8d8582613e0f565b865550613ef5565b601f198416613ea386613830565b60005b82811015613ecb57848901518255600182019150602085019450602081019050613ea6565b86831015613ee85784890151613ee4601f891682613df1565b8355505b6001600288020188555050505b505050505050565b60006060820190508181036000830152613f178186612d27565b9050613f266020830185613194565b613f336040830184612b28565b949350505050565b7f566f74696e67206e6f7420616374697665000000000000000000000000000000600082015250565b6000613f71601183612cec565b9150613f7c82613f3b565b602082019050919050565b60006020820190508181036000830152613fa081613f64565b9050919050565b7f506172747920616c726561647920657869737473000000000000000000000000600082015250565b6000613fdd601483612cec565b9150613fe882613fa7565b602082019050919050565b6000602082019050818103600083015261400c81613fd0565b9050919050565b6000604082019050818103600083015261402d8185612d27565b905081810360208301526140418184612d27565b9050939250505056fea2646970667358221220508deaa94ddc911c26a1ce03602c6c0f64af7c10d77b797ecf9497cce11d7fe864736f6c63430008130033",
  "linkReferences": {},
  "deployedLinkReferences": {},
  "immutableReferences": {},
  "inputSourceName": "project/contracts/VotingContract.sol",
  "buildInfoId": "solc-0_8_19-6653259f1c1b8e1489a7baa8202e7f5c0af8beff"
}