{
  "_format": "hh3-artifact-1",
  "contractName": "DocumentManager",
  "sourceName": "contracts/DocumentManager.sol",
  "abi": [
    {
      "inputs": [],
      "stateMutability": "nonpayable",
      "type": "constructor"
    },
    {
      "anonymous": false,
      "inputs": [
        {
          "indexed": true,
          "internalType": "uint256",
          "name": "documentId",
          "type": "uint256"
        },
        {
          "indexed": true,
          "internalType": "address",
          "name": "accessor",
          "type": "address"
        },
        {
          "indexed": false,
          "internalType": "uint256",
          "name": "timestamp",
          "type": "uint256"
        }
      ],
      "name": "DocumentAccessed",
      "type": "event"
    },
    {
      "anonymous": false,
      "inputs": [
        {
          "indexed": true,
          "internalType": "uint256",
          "name": "documentId",
          "type": "uint256"
        },
        {
          "indexed": true,
          "internalType": "address",
          "name": "owner",
          "type": "address"
        },
        {
          "indexed": false,
          "internalType": "string",
          "name": "documentHash",
          "type": "string"
        },
        {
          "indexed": false,
          "internalType": "string",
          "name": "ipfsHash",
          "type": "string"
        },
        {
          "indexed": false,
          "internalType": "uint256",
          "name": "timestamp",
          "type": "uint256"
        }
      ],
      "name": "DocumentStored",
      "type": "event"
    },
    {
      "anonymous": false,
      "inputs": [
        {
          "indexed": true,
          "internalType": "uint256",
          "name": "documentId",
          "type": "uint256"
        },
        {
          "indexed": true,
          "internalType": "address",
          "name": "owner",
          "type": "address"
        },
        {
          "indexed": true,
          "internalType": "address",
          "name": "grantee",
          "type": "address"
        },
        {
          "indexed": false,
          "internalType": "uint256",
          "name": "timestamp",
          "type": "uint256"
        }
      ],
      "name": "PermissionGranted",
      "type": "event"
    },
    {
      "anonymous": false,
      "inputs": [
        {
          "indexed": true,
          "internalType": "uint256",
          "name": "documentId",
          "type": "uint256"
        },
        {
          "indexed": true,
          "internalType": "address",
          "name": "owner",
          "type": "address"
        },
        {
          "indexed": true,
          "internalType": "address",
          "name": "grantee",
          "type": "address"
        },
        {
          "indexed": false,
          "internalType": "uint256",
          "name": "timestamp",
          "type": "uint256"
        }
      ],
      "name": "PermissionRevoked",
      "type": "event"
    },
    {
      "inputs": [
        {
          "internalType": "uint256",
          "name": "_documentId",
          "type": "uint256"
        },
        {
          "internalType": "address",
          "name": "_user",
          "type": "address"
        }
      ],
      "name": "getAccessPermission",
      "outputs": [
        {
          "internalType": "bool",
          "name": "canAccess",
          "type": "bool"
        },
        {
          "internalType": "uint256",
          "name": "grantedAt",
          "type": "uint256"
        },
        {
          "internalType": "address",
          "name": "grantedBy",
          "type": "address"
        }
      ],
      "stateMutability": "view",
      "type": "function"
    },
    {
      "inputs": [
        {
          "internalType": "uint256",
          "name": "_documentId",
          "type": "uint256"
        }
      ],
      "name": "getDocument",
      "outputs": [
        {
          "internalType": "string",
          "name": "documentHash",
          "type": "string"
        },
        {
          "internalType": "string",
          "name": "ipfsHash",
          "type": "string"
        },
        {
          "internalType": "string",
          "name": "encryptionKey",
          "type": "string"
        },
        {
          "internalType": "address",
          "name": "documentOwner",
          "type": "address"
        },
        {
          "internalType": "uint256",
          "name": "timestamp",
          "type": "uint256"
        }
      ],
      "stateMutability": "view",
      "type": "function"
    },
    {
      "inputs": [
        {
          "internalType": "uint256",
          "name": "_documentId",
          "type": "uint256"
        }
      ],
      "name": "getDocumentOwner",
      "outputs": [
        {
          "internalType": "address",
          "name": "",
          "type": "address"
        }
      ],
      "stateMutability": "view",
      "type": "function"
    },
    {
      "inputs": [],
      "name": "getTotalDocuments",
      "outputs": [
        {
          "internalType": "uint256",
          "name": "",
          "type": "uint256"
        }
      ],
      "stateMutability": "view",
      "type": "function"
    },
    {
      "inputs": [
        {
          "internalType": "address",
          "name": "_owner",
          "type": "address"
        }
      ],
      "name": "getUserDocuments",
      "outputs": [
        {
          "internalType": "uint256[]",
          "name": "",
          "type": "uint256[]"
        }
      ],
      "stateMutability": "view",
      "type": "function"
    },
    {
      "inputs": [],
      "name": "getVersion",
      "outputs": [
        {
          "internalType": "string",
          "name": "",
          "type": "string"
        }
      ],
      "stateMutability": "pure",
      "type": "function"
    },
    {
      "inputs": [
        {
          "internalType": "uint256",
          "name": "_documentId",
          "type": "uint256"
        },
        {
          "internalType": "address",
          "name": "_user",
          "type": "address"
        }
      ],
      "name": "hasAccess",
      "outputs": [
        {
          "internalType": "bool",
          "name": "",
          "type": "bool"
        }
      ],
      "stateMutability": "view",
      "type": "function"
    },
    {
      "inputs": [
        {
          "internalType": "uint256",
          "name": "_documentId",
          "type": "uint256"
        }
      ],
      "name": "isDocumentExists",
      "outputs": [
        {
          "internalType": "bool",
          "name": "",
          "type": "bool"
        }
      ],
      "stateMutability": "view",
      "type": "function"
    },
    {
      "inputs": [],
      "name": "owner",
      "outputs": [
        {
          "internalType": "address",
          "name": "",
          "type": "address"
        }
      ],
      "stateMutability": "view",
      "type": "function"
    },
    {
      "inputs": [
        {
          "internalType": "uint256",
          "name": "_documentId",
          "type": "uint256"
        }
      ],
      "name": "recordAccess",
      "outputs": [],
      "stateMutability": "nonpayable",
      "type": "function"
    },
    {
      "inputs": [
        {
          "internalType": "uint256",
          "name": "_documentId",
          "type": "uint256"
        },
        {
          "internalType": "address",
          "name": "_user",
          "type": "address"
        },
        {
          "internalType": "bool",
          "name": "_canAccess",
          "type": "bool"
        }
      ],
      "name": "setDocumentPermission",
      "outputs": [],
      "stateMutability": "nonpayable",
      "type": "function"
    },
    {
      "inputs": [
        {
          "internalType": "string",
          "name": "_documentHash",
          "type": "string"
        },
        {
          "internalType": "string",
          "name": "_ipfsHash",
          "type": "string"
        },
        {
          "internalType": "string",
          "name": "_encryptionKey",
          "type": "string"
        },
        {
          "internalType": "address",
          "name": "_documentOwner",
          "type": "address"
        }
      ],
      "name": "storeDocument",
      "outputs": [
        {
          "internalType": "uint256",
          "name": "",
          "type": "uint256"
        }
      ],
      "stateMutability": "nonpayable",
      "type": "function"
    },
    {
      "inputs": [
        {
          "internalType": "address",
          "name": "_newOwner",
          "type": "address"
        }
      ],
      "name": "transferOwnership",
      "outputs": [],
      "stateMutability": "nonpayable",
      "type": "function"
    },
    {
      "inputs": [
        {
          "internalType": "uint256",
          "name": "_documentId",
          "type": "uint256"
        },
        {
          "internalType": "string",
          "name": "_providedHash",
          "type": "string"
        }
      ],
      "name": "verifyDocumentIntegrity",
      "outputs": [
        {
          "internalType": "bool",
          "name": "",
          "type": "bool"
        }
      ],
      "stateMutability": "view",
      "type": "function"
    }
  ],
  "bytecode": "0x6080604052600160035534801561001557600080fd5b5033600460006101000a81548173ffffffffffffffffffffffffffffffffffffffff021916908373ffffffffffffffffffffffffffffffffffffffff16021790555061285c806100666000396000f3fe608060405234801561001057600080fd5b50600436106100ea5760003560e01c80638da5cb5b1161008c578063d0319f7511610066578063d0319f75146102b1578063e90e7ad4146102cd578063f2fde38b146102eb578063f795a64614610307576100ea565b80638da5cb5b1461023357806390a4b16214610251578063ced1419814610281576100ea565b8063170615f3116100c8578063170615f31461016d5780633f9b250a1461019d5780634db65851146101d15780636664c05f14610203576100ea565b806308734ab1146100ef5780630b4ad2511461011f5780630d8e6e2c1461014f575b600080fd5b610109600480360381019061010491906117d7565b610323565b6040516101169190611845565b60405180910390f35b610139600480360381019061013491906117d7565b6103c6565b604051610146919061187b565b60405180910390f35b6101576103f2565b6040516101649190611926565b60405180910390f35b61018760048036038101906101829190611a7d565b61042f565b604051610194919061187b565b60405180910390f35b6101b760048036038101906101b291906117d7565b61060b565b6040516101c8959493929190611ae8565b60405180910390f35b6101eb60048036038101906101e69190611b7c565b610a01565b6040516101fa93929190611bbc565b60405180910390f35b61021d60048036038101906102189190611bf3565b610b61565b60405161022a9190611cae565b60405180910390f35b61023b610e8f565b6040516102489190611845565b60405180910390f35b61026b60048036038101906102669190611cc9565b610eb5565b6040516102789190611db4565b60405180910390f35b61029b60048036038101906102969190611b7c565b610f4c565b6040516102a8919061187b565b60405180910390f35b6102cb60048036038101906102c69190611e02565b611086565b005b6102d5611473565b6040516102e29190611cae565b60405180910390f35b61030560048036038101906103009190611cc9565b611489565b005b610321600480360381019061031c91906117d7565b6115cc565b005b60008160008082815260200190815260200160002060050160009054906101000a900460ff16610388576040517f08c379a000000000000000000000000000000000000000000000000000000000815260040161037f90611ea1565b60405180910390fd5b60008084815260200190815260200160002060030160009054906101000a900473ffffffffffffffffffffffffffffffffffffffff16915050919050565b600080600083815260200190815260200160002060050160009054906101000a900460ff169050919050565b60606040518060400160405280600581526020017f312e302e30000000000000000000000000000000000000000000000000000000815250905090565b60008260008082815260200190815260200160002060050160009054906101000a900460ff16610494576040517f08c379a000000000000000000000000000000000000000000000000000000000815260040161048b90611ea1565b60405180910390fd5b3373ffffffffffffffffffffffffffffffffffffffff1660008083815260200190815260200160002060030160009054906101000a900473ffffffffffffffffffffffffffffffffffffffff1673ffffffffffffffffffffffffffffffffffffffff16148061056057506002600082815260200190815260200160002060003373ffffffffffffffffffffffffffffffffffffffff1673ffffffffffffffffffffffffffffffffffffffff16815260200190815260200160002060000160009054906101000a900460ff165b61059f576040517f08c379a000000000000000000000000000000000000000000000000000000000815260040161059690611f0d565b60405180910390fd5b826040516020016105b09190611f69565b604051602081830303815290604052805190602001206000808681526020019081526020016000206000016040516020016105eb9190612078565b604051602081830303815290604052805190602001201491505092915050565b60608060606000808560008082815260200190815260200160002060050160009054906101000a900460ff16610676576040517f08c379a000000000000000000000000000000000000000000000000000000000815260040161066d90611ea1565b60405180910390fd5b3373ffffffffffffffffffffffffffffffffffffffff1660008083815260200190815260200160002060030160009054906101000a900473ffffffffffffffffffffffffffffffffffffffff1673ffffffffffffffffffffffffffffffffffffffff16148061074257506002600082815260200190815260200160002060003373ffffffffffffffffffffffffffffffffffffffff1673ffffffffffffffffffffffffffffffffffffffff16815260200190815260200160002060000160009054906101000a900460ff165b610781576040517f08c379a000000000000000000000000000000000000000000000000000000000815260040161077890611f0d565b60405180910390fd5b60008060008981526020019081526020016000206040518060c00160405290816000820180546107b090611faf565b80601f01602080910402602001604051908101604052809291908181526020018280546107dc90611faf565b80156108295780601f106107fe57610100808354040283529160200191610829565b820191906000526020600020905b81548152906001019060200180831161080c57829003601f168201915b5050505050815260200160018201805461084290611faf565b80601f016020809104026020016040519081016040528092919081815260200182805461086e90611faf565b80156108bb5780601f10610890576101008083540402835291602001916108bb565b820191906000526020600020905b81548152906001019060200180831161089e57829003601f168201915b505050505081526020016002820180546108d490611faf565b80601f016020809104026020016040519081016040528092919081815260200182805461090090611faf565b801561094d5780601f106109225761010080835404028352916020019161094d565b820191906000526020600020905b81548152906001019060200180831161093057829003601f168201915b505050505081526020016003820160009054906101000a900473ffffffffffffffffffffffffffffffffffffffff1673ffffffffffffffffffffffffffffffffffffffff1673ffffffffffffffffffffffffffffffffffffffff168152602001600482015481526020016005820160009054906101000a900460ff16151515158152505090508060000151816020015182604001518360600151846080015196509650965096509650505091939590929450565b60008060008460008082815260200190815260200160002060050160009054906101000a900460ff16610a69576040517f08c379a0000000000000000000000000000000000000000000000000000000008152600401610a6090611ea1565b60405180910390fd5b60006002600088815260200190815260200160002060008773ffffffffffffffffffffffffffffffffffffffff1673ffffffffffffffffffffffffffffffffffffffff1681526020019081526020016000206040518060600160405290816000820160009054906101000a900460ff16151515158152602001600182015481526020016002820160009054906101000a900473ffffffffffffffffffffffffffffffffffffffff1673ffffffffffffffffffffffffffffffffffffffff1673ffffffffffffffffffffffffffffffffffffffff1681525050905080600001518160200151826040015194509450945050509250925092565b600080855111610ba6576040517f08c379a0000000000000000000000000000000000000000000000000000000008152600401610b9d906120db565b60405180910390fd5b6000845111610bea576040517f08c379a0000000000000000000000000000000000000000000000000000000008152600401610be190612147565b60405180910390fd5b6000835111610c2e576040517f08c379a0000000000000000000000000000000000000000000000000000000008152600401610c25906121b3565b60405180910390fd5b600073ffffffffffffffffffffffffffffffffffffffff168273ffffffffffffffffffffffffffffffffffffffff1603610c9d576040517f08c379a0000000000000000000000000000000000000000000000000000000008152600401610c949061221f565b60405180910390fd5b6000600354905060036000815480929190610cb79061226e565b91905055506040518060c001604052808781526020018681526020018581526020018473ffffffffffffffffffffffffffffffffffffffff168152602001428152602001600115158152506000808381526020019081526020016000206000820151816000019081610d29919061244d565b506020820151816001019081610d3f919061244d565b506040820151816002019081610d55919061244d565b5060608201518160030160006101000a81548173ffffffffffffffffffffffffffffffffffffffff021916908373ffffffffffffffffffffffffffffffffffffffff1602179055506080820151816004015560a08201518160050160006101000a81548160ff021916908315150217905550905050600160008473ffffffffffffffffffffffffffffffffffffffff1673ffffffffffffffffffffffffffffffffffffffff1681526020019081526020016000208190806001815401808255809150506001900390600052602060002001600090919091909150558273ffffffffffffffffffffffffffffffffffffffff16817f8f0df54bf01498082a46e3432b36a2fff8a082dde20024383cbc84eb8bd65227888842604051610e7b9392919061251f565b60405180910390a380915050949350505050565b600460009054906101000a900473ffffffffffffffffffffffffffffffffffffffff1681565b6060600160008373ffffffffffffffffffffffffffffffffffffffff1673ffffffffffffffffffffffffffffffffffffffff168152602001908152602001600020805480602002602001604051908101604052809291908181526020018280548015610f4057602002820191906000526020600020905b815481526020019060010190808311610f2c575b50505050509050919050565b60008260008082815260200190815260200160002060050160009054906101000a900460ff16610fb1576040517f08c379a0000000000000000000000000000000000000000000000000000000008152600401610fa890611ea1565b60405180910390fd5b8273ffffffffffffffffffffffffffffffffffffffff1660008086815260200190815260200160002060030160009054906101000a900473ffffffffffffffffffffffffffffffffffffffff1673ffffffffffffffffffffffffffffffffffffffff16148061107d57506002600085815260200190815260200160002060008473ffffffffffffffffffffffffffffffffffffffff1673ffffffffffffffffffffffffffffffffffffffff16815260200190815260200160002060000160009054906101000a900460ff165b91505092915050565b8260008082815260200190815260200160002060050160009054906101000a900460ff166110e9576040517f08c379a00000000000000000000000000000000000000000000000000000000081526004016110e090611ea1565b60405180910390fd5b3373ffffffffffffffffffffffffffffffffffffffff1660008083815260200190815260200160002060030160009054906101000a900473ffffffffffffffffffffffffffffffffffffffff1673ffffffffffffffffffffffffffffffffffffffff161461118c576040517f08c379a0000000000000000000000000000000000000000000000000000000008152600401611183906125d6565b60405180910390fd5b600073ffffffffffffffffffffffffffffffffffffffff168373ffffffffffffffffffffffffffffffffffffffff16036111fb576040517f08c379a00000000000000000000000000000000000000000000000000000000081526004016111f290612642565b60405180910390fd5b60008085815260200190815260200160002060030160009054906101000a900473ffffffffffffffffffffffffffffffffffffffff1673ffffffffffffffffffffffffffffffffffffffff168373ffffffffffffffffffffffffffffffffffffffff160361129e576040517f08c379a0000000000000000000000000000000000000000000000000000000008152600401611295906126d4565b60405180910390fd5b604051806060016040528083151581526020014281526020013373ffffffffffffffffffffffffffffffffffffffff168152506002600086815260200190815260200160002060008573ffffffffffffffffffffffffffffffffffffffff1673ffffffffffffffffffffffffffffffffffffffff16815260200190815260200160002060008201518160000160006101000a81548160ff0219169083151502179055506020820151816001015560408201518160020160006101000a81548173ffffffffffffffffffffffffffffffffffffffff021916908373ffffffffffffffffffffffffffffffffffffffff1602179055509050508115611406578273ffffffffffffffffffffffffffffffffffffffff163373ffffffffffffffffffffffffffffffffffffffff16857f8be8cd0aa11cd03eb5d556dd1e08687bb09b6fdf7d227c9ede7b8426f96da03f426040516113f99190611cae565b60405180910390a461146d565b8273ffffffffffffffffffffffffffffffffffffffff163373ffffffffffffffffffffffffffffffffffffffff16857faa3c9dac66a750d95209b48ca2766a49801b2484dfdc92a4b4fe86b7d4dfb090426040516114649190611cae565b60405180910390a45b50505050565b6000600160035461148491906126f4565b905090565b600460009054906101000a900473ffffffffffffffffffffffffffffffffffffffff1673ffffffffffffffffffffffffffffffffffffffff163373ffffffffffffffffffffffffffffffffffffffff1614611519576040517f08c379a00000000000000000000000000000000000000000000000000000000081526004016115109061279a565b60405180910390fd5b600073ffffffffffffffffffffffffffffffffffffffff168173ffffffffffffffffffffffffffffffffffffffff1603611588576040517f08c379a000000000000000000000000000000000000000000000000000000000815260040161157f90612806565b60405180910390fd5b80600460006101000a81548173ffffffffffffffffffffffffffffffffffffffff021916908373ffffffffffffffffffffffffffffffffffffffff16021790555050565b8060008082815260200190815260200160002060050160009054906101000a900460ff1661162f576040517f08c379a000000000000000000000000000000000000000000000000000000000815260040161162690611ea1565b60405180910390fd5b3373ffffffffffffffffffffffffffffffffffffffff1660008083815260200190815260200160002060030160009054906101000a900473ffffffffffffffffffffffffffffffffffffffff1673ffffffffffffffffffffffffffffffffffffffff1614806116fb57506002600082815260200190815260200160002060003373ffffffffffffffffffffffffffffffffffffffff1673ffffffffffffffffffffffffffffffffffffffff16815260200190815260200160002060000160009054906101000a900460ff165b61173a576040517f08c379a000000000000000000000000000000000000000000000000000000000815260040161173190611f0d565b60405180910390fd5b3373ffffffffffffffffffffffffffffffffffffffff16827f85ad534925c39b74fb56688e955770daff5b5347916a5dafc0129d8ccb3f7af7426040516117819190611cae565b60405180910390a35050565b6000604051905090565b600080fd5b600080fd5b6000819050919050565b6117b4816117a1565b81146117bf57600080fd5b50565b6000813590506117d1816117ab565b92915050565b6000602082840312156117ed576117ec611797565b5b60006117fb848285016117c2565b91505092915050565b600073ffffffffffffffffffffffffffffffffffffffff82169050919050565b600061182f82611804565b9050919050565b61183f81611824565b82525050565b600060208201905061185a6000830184611836565b92915050565b60008115159050919050565b61187581611860565b82525050565b6000602082019050611890600083018461186c565b92915050565b600081519050919050565b600082825260208201905092915050565b60005b838110156118d05780820151818401526020810190506118b5565b60008484015250505050565b6000601f19601f8301169050919050565b60006118f882611896565b61190281856118a1565b93506119128185602086016118b2565b61191b816118dc565b840191505092915050565b6000602082019050818103600083015261194081846118ed565b905092915050565b600080fd5b600080fd5b7f4e487b7100000000000000000000000000000000000000000000000000000000600052604160045260246000fd5b61198a826118dc565b810181811067ffffffffffffffff821117156119a9576119a8611952565b5b80604052505050565b60006119bc61178d565b90506119c88282611981565b919050565b600067ffffffffffffffff8211156119e8576119e7611952565b5b6119f1826118dc565b9050602081019050919050565b82818337600083830152505050565b6000611a20611a1b846119cd565b6119b2565b905082815260208101848484011115611a3c57611a3b61194d565b5b611a478482856119fe565b509392505050565b600082601f830112611a6457611a63611948565b5b8135611a74848260208601611a0d565b91505092915050565b60008060408385031215611a9457611a93611797565b5b6000611aa2858286016117c2565b925050602083013567ffffffffffffffff811115611ac357611ac261179c565b5b611acf85828601611a4f565b9150509250929050565b611ae2816117a1565b82525050565b600060a0820190508181036000830152611b0281886118ed565b90508181036020830152611b1681876118ed565b90508181036040830152611b2a81866118ed565b9050611b396060830185611836565b611b466080830184611ad9565b9695505050505050565b611b5981611824565b8114611b6457600080fd5b50565b600081359050611b7681611b50565b92915050565b60008060408385031215611b9357611b92611797565b5b6000611ba1858286016117c2565b9250506020611bb285828601611b67565b9150509250929050565b6000606082019050611bd1600083018661186c565b611bde6020830185611ad9565b611beb6040830184611836565b949350505050565b60008060008060808587031215611c0d57611c0c611797565b5b600085013567ffffffffffffffff811115611c2b57611c2a61179c565b5b611c3787828801611a4f565b945050602085013567ffffffffffffffff811115611c5857611c5761179c565b5b611c6487828801611a4f565b935050604085013567ffffffffffffffff811115611c8557611c8461179c565b5b611c9187828801611a4f565b9250506060611ca287828801611b67565b91505092959194509250565b6000602082019050611cc36000830184611ad9565b92915050565b600060208284031215611cdf57611cde611797565b5b6000611ced84828501611b67565b91505092915050565b600081519050919050565b600082825260208201905092915050565b6000819050602082019050919050565b611d2b816117a1565b82525050565b6000611d3d8383611d22565b60208301905092915050565b6000602082019050919050565b6000611d6182611cf6565b611d6b8185611d01565b9350611d7683611d12565b8060005b83811015611da7578151611d8e8882611d31565b9750611d9983611d49565b925050600181019050611d7a565b5085935050505092915050565b60006020820190508181036000830152611dce8184611d56565b905092915050565b611ddf81611860565b8114611dea57600080fd5b50565b600081359050611dfc81611dd6565b92915050565b600080600060608486031215611e1b57611e1a611797565b5b6000611e29868287016117c2565b9350506020611e3a86828701611b67565b9250506040611e4b86828701611ded565b9150509250925092565b7f446f63756d656e7420646f6573206e6f74206578697374000000000000000000600082015250565b6000611e8b6017836118a1565b9150611e9682611e55565b602082019050919050565b60006020820190508181036000830152611eba81611e7e565b9050919050565b7f4163636573732064656e69656400000000000000000000000000000000000000600082015250565b6000611ef7600d836118a1565b9150611f0282611ec1565b602082019050919050565b60006020820190508181036000830152611f2681611eea565b9050919050565b600081905092915050565b6000611f4382611896565b611f4d8185611f2d565b9350611f5d8185602086016118b2565b80840191505092915050565b6000611f758284611f38565b915081905092915050565b7f4e487b7100000000000000000000000000000000000000000000000000000000600052602260045260246000fd5b60006002820490506001821680611fc757607f821691505b602082108103611fda57611fd9611f80565b5b50919050565b60008190508160005260206000209050919050565b6000815461200281611faf565b61200c8186611f2d565b94506001821660008114612027576001811461203c5761206f565b60ff198316865281151582028601935061206f565b61204585611fe0565b60005b8381101561206757815481890152600182019150602081019050612048565b838801955050505b50505092915050565b60006120848284611ff5565b915081905092915050565b7f446f63756d656e7420686173682063616e6e6f7420626520656d707479000000600082015250565b60006120c5601d836118a1565b91506120d08261208f565b602082019050919050565b600060208201905081810360008301526120f4816120b8565b9050919050565b7f4950465320686173682063616e6e6f7420626520656d70747900000000000000600082015250565b60006121316019836118a1565b915061213c826120fb565b602082019050919050565b6000602082019050818103600083015261216081612124565b9050919050565b7f456e6372797074696f6e206b65792063616e6e6f7420626520656d7074790000600082015250565b600061219d601e836118a1565b91506121a882612167565b602082019050919050565b600060208201905081810360008301526121cc81612190565b9050919050565b7f496e76616c696420646f63756d656e74206f776e657220616464726573730000600082015250565b6000612209601e836118a1565b9150612214826121d3565b602082019050919050565b60006020820190508181036000830152612238816121fc565b9050919050565b7f4e487b7100000000000000000000000000000000000000000000000000000000600052601160045260246000fd5b6000612279826117a1565b91507fffffffffffffffffffffffffffffffffffffffffffffffffffffffffffffffff82036122ab576122aa61223f565b5b600182019050919050565b60006020601f8301049050919050565b600082821b905092915050565b6000600883026123037fffffffffffffffffffffffffffffffffffffffffffffffffffffffffffffffff826122c6565b61230d86836122c6565b95508019841693508086168417925050509392505050565b6000819050919050565b600061234a612345612340846117a1565b612325565b6117a1565b9050919050565b6000819050919050565b6123648361232f565b61237861237082612351565b8484546122d3565b825550505050565b600090565b61238d612380565b61239881848461235b565b505050565b5b818110156123bc576123b1600082612385565b60018101905061239e565b5050565b601f821115612401576123d281611fe0565b6123db846122b6565b810160208510156123ea578190505b6123fe6123f6856122b6565b83018261239d565b50505b505050565b600082821c905092915050565b600061242460001984600802612406565b1980831691505092915050565b600061243d8383612413565b9150826002028217905092915050565b61245682611896565b67ffffffffffffffff81111561246f5761246e611952565b5b6124798254611faf565b6124848282856123c0565b600060209050601f8311600181146124b757600084156124a5578287015190505b6124af8582612431565b865550612517565b601f1984166124c586611fe0565b60005b828110156124ed578489015182556001820191506020850194506020810190506124c8565b8683101561250a5784890151612506601f891682612413565b8355505b6001600288020188555050505b505050505050565b6000606082019050818103600083015261253981866118ed565b9050818103602083015261254d81856118ed565b905061255c6040830184611ad9565b949350505050565b7f4f6e6c7920646f63756d656e74206f776e65722063616e2063616c6c2074686960008201527f732066756e6374696f6e00000000000000000000000000000000000000000000602082015250565b60006125c0602a836118a1565b91506125cb82612564565b604082019050919050565b600060208201905081810360008301526125ef816125b3565b9050919050565b7f496e76616c696420757365722061646472657373000000000000000000000000600082015250565b600061262c6014836118a1565b9150612637826125f6565b602082019050919050565b6000602082019050818103600083015261265b8161261f565b9050919050565b7f43616e6e6f7420736574207065726d697373696f6e20666f7220646f63756d6560008201527f6e74206f776e6572000000000000000000000000000000000000000000000000602082015250565b60006126be6028836118a1565b91506126c982612662565b604082019050919050565b600060208201905081810360008301526126ed816126b1565b9050919050565b60006126ff826117a1565b915061270a836117a1565b92508282039050818111156127225761272161223f565b5b92915050565b7f4f6e6c7920636f6e7472616374206f776e65722063616e2063616c6c2074686960008201527f732066756e6374696f6e00000000000000000000000000000000000000000000602082015250565b6000612784602a836118a1565b915061278f82612728565b604082019050919050565b600060208201905081810360008301526127b381612777565b9050919050565b7f496e76616c6964206e6577206f776e6572206164647265737300000000000000600082015250565b60006127f06019836118a1565b91506127fb826127ba565b602082019050919050565b6000602082019050818103600083015261281f816127e3565b905091905056fea26469706673582212206332e06b24c1d00ff11f68fe4c1b96238f1eeb67a22fb5408f66e2fa6969b91564736f6c63430008130033",
  "linkReferences": {},
  "deployedLinkReferences": {},
  "immutableReferences": {},
  "inputSourceName": "project/contracts/DocumentManager.sol",
  "buildInfoId": "solc-0_8_19-0124a425a7600a70300669ee93df83dc829dde97"
}